{
  "contractName": "Election",
  "abi": [
    {
      "inputs": [],
      "payable": false,
      "stateMutability": "nonpayable",
      "type": "constructor"
    },
    {
      "anonymous": false,
      "inputs": [
        {
          "indexed": true,
          "internalType": "uint256",
          "name": "_nomineeId",
          "type": "uint256"
        }
      ],
      "name": "votingEvent",
      "type": "event"
    },
    {
      "constant": true,
      "inputs": [
        {
          "internalType": "address",
          "name": "",
          "type": "address"
        }
      ],
      "name": "alreadyVoted",
      "outputs": [
        {
          "internalType": "bool",
          "name": "",
          "type": "bool"
        }
      ],
      "payable": false,
      "stateMutability": "view",
      "type": "function"
    },
    {
      "constant": true,
      "inputs": [],
      "name": "candidate",
      "outputs": [
        {
          "internalType": "string",
          "name": "",
          "type": "string"
        }
      ],
      "payable": false,
      "stateMutability": "view",
      "type": "function"
    },
    {
      "constant": true,
      "inputs": [
        {
          "internalType": "uint256",
          "name": "",
          "type": "uint256"
        }
      ],
      "name": "totalNominees",
      "outputs": [
        {
          "internalType": "uint256",
          "name": "id",
          "type": "uint256"
        },
        {
          "internalType": "uint256",
          "name": "voteCount",
          "type": "uint256"
        },
        {
          "internalType": "string",
          "name": "name",
          "type": "string"
        }
      ],
      "payable": false,
      "stateMutability": "view",
      "type": "function"
    },
    {
      "constant": true,
      "inputs": [],
      "name": "totalNomineesCount",
      "outputs": [
        {
          "internalType": "uint256",
          "name": "",
          "type": "uint256"
        }
      ],
      "payable": false,
      "stateMutability": "view",
      "type": "function"
    },
    {
      "constant": false,
      "inputs": [
        {
          "internalType": "uint256",
          "name": "_nomineeId",
          "type": "uint256"
        }
      ],
      "name": "vote",
      "outputs": [],
      "payable": false,
      "stateMutability": "nonpayable",
      "type": "function"
    }
  ],
  "bytecode": "0x60806040526040518060400160405280600381526020017f546f6d00000000000000000000000000000000000000000000000000000000008152506004908051906020019061004f9291906101e3565b506040518060400160405280600781526020017f4d69736861656c000000000000000000000000000000000000000000000000008152506005908051906020019061009b9291906101e3565b503480156100a857600080fd5b506100b960046100ce60201b60201c565b6100c960056100ce60201b60201c565b610308565b6003600081548092919060010191905055506040518060600160405280600354815260200160008152602001828054600181600116156101000203166002900480601f01602080910402602001604051908101604052809291908181526020018280546001816001161561010002031660029004801561018f5780601f106101645761010080835404028352916020019161018f565b820191906000526020600020905b81548152906001019060200180831161017257829003601f168201915b5050505050815250600160006003548152602001908152602001600020600082015181600001556020820151816001015560408201518160020190805190602001906101dc929190610263565b5090505050565b828054600181600116156101000203166002900490600052602060002090601f016020900481019282601f1061022457805160ff1916838001178555610252565b82800160010185558215610252579182015b82811115610251578251825591602001919060010190610236565b5b50905061025f91906102e3565b5090565b828054600181600116156101000203166002900490600052602060002090601f016020900481019282601f106102a457805160ff19168380011785556102d2565b828001600101855582156102d2579182015b828111156102d15782518255916020019190600101906102b6565b5b5090506102df91906102e3565b5090565b61030591905b808211156103015760008160009055506001016102e9565b5090565b90565b610517806103176000396000f3fe608060405234801561001057600080fd5b50600436106100575760003560e01c80630121b93f1461005c57806306d2ad401461008a5780632649a156146100e6578063341065031461019b5780636c8381f8146101b9575b600080fd5b6100886004803603602081101561007257600080fd5b810190808035906020019092919050505061023c565b005b6100cc600480360360208110156100a057600080fd5b81019080803573ffffffffffffffffffffffffffffffffffffffff16906020019092919050505061035c565b604051808215151515815260200191505060405180910390f35b610112600480360360208110156100fc57600080fd5b810190808035906020019092919050505061037c565b6040518084815260200183815260200180602001828103825283818151815260200191508051906020019080838360005b8381101561015e578082015181840152602081019050610143565b50505050905090810190601f16801561018b5780820380516001836020036101000a031916815260200191505b5094505050505060405180910390f35b6101a361043e565b6040518082815260200191505060405180910390f35b6101c1610444565b6040518080602001828103825283818151815260200191508051906020019080838360005b838110156102015780820151818401526020810190506101e6565b50505050905090810190601f16801561022e5780820380516001836020036101000a031916815260200191505b509250505060405180910390f35b600260003373ffffffffffffffffffffffffffffffffffffffff1673ffffffffffffffffffffffffffffffffffffffff16815260200190815260200160002060009054906101000a900460ff161561029357600080fd5b6000811180156102a557506003548111155b6102ae57600080fd5b6001600260003373ffffffffffffffffffffffffffffffffffffffff1673ffffffffffffffffffffffffffffffffffffffff16815260200190815260200160002060006101000a81548160ff0219169083151502179055506001600082815260200190815260200160002060010160008154809291906001019190505550807f3474d7a80d734f2c159cbc95fd43cc116f75c5cc5b1b755e0fd91a0dbfc3c8c160405160405180910390a250565b60026020528060005260406000206000915054906101000a900460ff1681565b6001602052806000526040600020600091509050806000015490806001015490806002018054600181600116156101000203166002900480601f0160208091040260200160405190810160405280929190818152602001828054600181600116156101000203166002900480156104345780601f1061040957610100808354040283529160200191610434565b820191906000526020600020905b81548152906001019060200180831161041757829003601f168201915b5050505050905083565b60035481565b60008054600181600116156101000203166002900480601f0160208091040260200160405190810160405280929190818152602001828054600181600116156101000203166002900480156104da5780601f106104af576101008083540402835291602001916104da565b820191906000526020600020905b8154815290600101906020018083116104bd57829003601f168201915b50505050508156fea265627a7a72315820289a78826448d4bcf3b8d2fd01f99d547d4e8e7e148e1b3190d1d6de715d52cc64736f6c63430005100032",
  "source": "pragma solidity >=0.4.22 <0.8.0;\r\n\r\ncontract Election {\r\n\r\n    struct Nominee {\r\n      uint id;\r\n      uint voteCount;\r\n      string name;\r\n    }\r\n    string public candidate;\r\n\r\n    mapping(uint => Nominee) public totalNominees;\r\n\r\n//we need a way to store account that already voted so they wont vote again\r\n    mapping(address=>bool)public alreadyVoted;//default is false\r\n    uint public totalNomineesCount;\r\n    string nominee1=\"Tom\";\r\n    string nominee2=\"Mishael\";\r\n\r\n    event votingEvent(\r\n      uint indexed _nomineeId\r\n      );\r\n\r\n    // Constructor will add two nominees the take part in the election\r\n    constructor () public {\r\n      addNominee(nominee1);\r\n      addNominee(nominee2);\r\n    }\r\n\r\n    function addNominee(string storage _name) private{\r\n      totalNomineesCount++;//increment number of nominees count so count=nomineeId\r\n      totalNominees[totalNomineesCount]= Nominee(totalNomineesCount,0,_name);\r\n      //creates the new nominee with the incremented id,_name and 0 as number of votes\r\n    }\r\n\r\n    function vote (uint _nomineeId) public{\r\n      //make sure they never voted before\r\n\r\n      require(!alreadyVoted[msg.sender]);//if the address never voted it will return a false. the \"!\" will change it to true.\r\n      //we require that the specific address never voted so a true will give us just that\r\n\r\n      require(_nomineeId>0&&_nomineeId<=totalNomineesCount);  //make sure that that voting could only be dont to a valid nominee1\r\n\r\n\r\n      //once voted.. cant vote again- means one vote per address. so we will chnage the value of the mapping to true.\r\n      alreadyVoted[msg.sender]=true;\r\n      //we will increase nominee votes by 1\r\n      totalNominees[_nomineeId].voteCount++;\r\n\r\n      emit votingEvent(_nomineeId);\r\n\r\n\r\n\r\n    }\r\n}\r\n",
  "sourcePath": "C:\\Users\\Tom\\Desktop\\T_M election\\contracts\\Election.sol",
  "compiler": {
    "name": "solc",
    "version": "0.5.16+commit.9c3226ce.Emscripten.clang"
  },
  "schemaVersion": "3.4.4",
  "updatedAt": "2022-02-02T17:43:37.821Z",
  "networkType": "ethereum",
  "devdoc": {
    "methods": {}
  },
  "userdoc": {
    "methods": {}
  }
}