{
  "contractName": "Election",
  "abi": [
    {
      "inputs": [],
      "payable": false,
      "stateMutability": "nonpayable",
      "type": "constructor"
    },
    {
      "constant": true,
      "inputs": [],
      "name": "candidate",
      "outputs": [
        {
          "internalType": "string",
          "name": "",
          "type": "string"
        }
      ],
      "payable": false,
      "stateMutability": "view",
      "type": "function"
    },
    {
      "constant": true,
      "inputs": [
        {
          "internalType": "uint256",
          "name": "",
          "type": "uint256"
        }
      ],
      "name": "totalNominees",
      "outputs": [
        {
          "internalType": "uint256",
          "name": "id",
          "type": "uint256"
        },
        {
          "internalType": "uint256",
          "name": "voteCount",
          "type": "uint256"
        },
        {
          "internalType": "string",
          "name": "name",
          "type": "string"
        }
      ],
      "payable": false,
      "stateMutability": "view",
      "type": "function"
    },
    {
      "constant": true,
      "inputs": [],
      "name": "totalNomineesCount",
      "outputs": [
        {
          "internalType": "uint256",
          "name": "",
          "type": "uint256"
        }
      ],
      "payable": false,
      "stateMutability": "view",
      "type": "function"
    }
  ],
  "bytecode": "0x60806040526040518060400160405280600381526020017f546f6d00000000000000000000000000000000000000000000000000000000008152506003908051906020019061004f9291906101e3565b506040518060400160405280600781526020017f4d69736861656c000000000000000000000000000000000000000000000000008152506004908051906020019061009b9291906101e3565b503480156100a857600080fd5b506100b960036100ce60201b60201c565b6100c960046100ce60201b60201c565b610308565b6002600081548092919060010191905055506040518060600160405280600254815260200160008152602001828054600181600116156101000203166002900480601f01602080910402602001604051908101604052809291908181526020018280546001816001161561010002031660029004801561018f5780601f106101645761010080835404028352916020019161018f565b820191906000526020600020905b81548152906001019060200180831161017257829003601f168201915b5050505050815250600160006002548152602001908152602001600020600082015181600001556020820151816001015560408201518160020190805190602001906101dc929190610263565b5090505050565b828054600181600116156101000203166002900490600052602060002090601f016020900481019282601f1061022457805160ff1916838001178555610252565b82800160010185558215610252579182015b82811115610251578251825591602001919060010190610236565b5b50905061025f91906102e3565b5090565b828054600181600116156101000203166002900490600052602060002090601f016020900481019282601f106102a457805160ff19168380011785556102d2565b828001600101855582156102d2579182015b828111156102d15782518255916020019190600101906102b6565b5b5090506102df91906102e3565b5090565b61030591905b808211156103015760008160009055506001016102e9565b5090565b90565b610337806103176000396000f3fe608060405234801561001057600080fd5b50600436106100415760003560e01c80632649a1561461004657806334106503146100fb5780636c8381f814610119575b600080fd5b6100726004803603602081101561005c57600080fd5b810190808035906020019092919050505061019c565b6040518084815260200183815260200180602001828103825283818151815260200191508051906020019080838360005b838110156100be5780820151818401526020810190506100a3565b50505050905090810190601f1680156100eb5780820380516001836020036101000a031916815260200191505b5094505050505060405180910390f35b61010361025e565b6040518082815260200191505060405180910390f35b610121610264565b6040518080602001828103825283818151815260200191508051906020019080838360005b83811015610161578082015181840152602081019050610146565b50505050905090810190601f16801561018e5780820380516001836020036101000a031916815260200191505b509250505060405180910390f35b6001602052806000526040600020600091509050806000015490806001015490806002018054600181600116156101000203166002900480601f0160208091040260200160405190810160405280929190818152602001828054600181600116156101000203166002900480156102545780601f1061022957610100808354040283529160200191610254565b820191906000526020600020905b81548152906001019060200180831161023757829003601f168201915b5050505050905083565b60025481565b60008054600181600116156101000203166002900480601f0160208091040260200160405190810160405280929190818152602001828054600181600116156101000203166002900480156102fa5780601f106102cf576101008083540402835291602001916102fa565b820191906000526020600020905b8154815290600101906020018083116102dd57829003601f168201915b50505050508156fea265627a7a723158207d1643e415a1be466100847d7bc42f3f9fb1f5b2cf37afea037f6889bbf8b41564736f6c63430005100032",
  "source": "pragma solidity >=0.4.22 <0.8.0;\r\n\r\ncontract Election {\r\n\r\n    struct Nominee {\r\n      uint id;\r\n      uint voteCount;\r\n      string name;\r\n    }\r\n    string public candidate;\r\n\r\n    mapping(uint => Nominee) public totalNominees;\r\n    uint public totalNomineesCount;\r\n    string nominee1=\"Tom\";\r\n    string nominee2=\"Mishael\";\r\n\r\n    // Constructor will add two nominees the take part in the election\r\n    constructor () public {\r\n      addNominee(nominee1);\r\n      addNominee(nominee2);\r\n    }\r\n\r\n    function addNominee(string storage _name) private{\r\n      totalNomineesCount++;//increment number of nominees count so count=nomineeId\r\n      totalNominees[totalNomineesCount]= Nominee(totalNomineesCount,0,_name);\r\n      //creates the new nominee with the incremented id,_name and 0 as number of votes\r\n    }\r\n}\r\n",
  "sourcePath": "C:\\Users\\Tom\\Desktop\\T_M election\\contracts\\Election.sol",
  "compiler": {
    "name": "solc",
    "version": "0.5.16+commit.9c3226ce.Emscripten.clang"
  },
  "schemaVersion": "3.4.4",
  "updatedAt": "2022-01-31T13:27:21.733Z",
  "networkType": "ethereum",
  "devdoc": {
    "methods": {}
  },
  "userdoc": {
    "methods": {}
  }
}